:100000000200CBE5836003E49322A882E622E58325
:100010006004E4938003A882E6F822E5836004E4A8
:10002000938003A882E6F922E5836004E4938003C9
:10003000A882E6FA22E5836004E4938003A882E6BE
:10004000FB22E5836004E4938003A882E6FC22E5BA
:10005000836004E4938003A882E6FD22E5836004C4
:10006000E4938003A882E6FE22E5836004E49380A3
:1000700003A882E6FF22898288838B00EC4D6036DC
:10008000E4E0F608A31DBDFFF31C80F0B800118B5F
:1000900000EC4D6021E7F609081DBDFFF41C80F15E
:1000A000898288838B00EC4D600CE493F608A31DD5
:1000B000BDFFF31C80F022E4F5D075813E78207AF4
:0E00C0001EF608DAFC1202D30200000200B79E
:1001000000A200A900AB00B300AF00B100A900C07D
:100110003232320002027A8A348B358C368D37784F
:100120000179007A007B247D107C0012008CE4F5BC
:1001300038F539753A00753B08E4F53CF53D7580B6
:100140008075A00175A000E537253BFDE536353A01
:10015000FCECB53406EDB535028004500580000294
:1001600001EAE537253BFDE536353AFCEDC395352B
:10017000FDEC9534FCE53BC39DF539E53A9CF5383B
:100180008039E53DB53507E53CB534028002800293
:10019000803B053DE53D7002053CA838A939E9C31F
:1001A00033F9E833F87424292401F9878075A00312
:1001B00075A0020539E53970020538E53AB538070A
:1001C000E53BB5390280065002800280B5E537254F
:1001D0003BFDE536353AFCEDC39535FDEC9534FC39
:1001E000ED24FFF539EC34FFF5388029E53DB535D0
:1001F00007E53CB5340280028002802B053DE53DD9
:100200007002053C75800675A00375A0020539E5EE
:100210003970020538E536B53807E537B53902805B
:10022000065002800280C5E4F538F5398039E53D95
:10023000B53507E53CB5340280028002803B053DC0
:10024000E53D7002053CA838A939E9C333F9E83324
:10025000F87424292401F9878075A00375A002058C
:1002600039E53970020538E53AB53807E53BB53967
:100270000280065002800280B5220201178052756A
:1002800024017525107580C675A00175A000E4F5E0
:1002900026F527E52724FDE52634FF50028002805D
:1002A00002802DE5272525F582E5263524F58312E4
:1002B0000003F58075A00375A0020527E5277002ED
:1002C0000526E52724FDE52634FF5002800280D371
:1002D0002280AC804BE4F520F521752200752310B7
:1002E00075803875A00175A00012027DAA22AB238B
:1002F000AC20AD21120114C3E52195238522F063C2
:10030000F080E520648095F050028002800A05218B
:10031000E521700205208005E4F520F52180CD223D
:0203200080B3A8
:00000001FF
